:020000040000FA
:1000000060020020C9010000D1010000D3010000FE
:10001000D5010000D7010000D90100000000000058
:10002000000000000000000000000000DB010000F4
:10003000DD01000000000000DF010000E101000020
:10004000E3010000E3010000E3010000E301000020
:10005000E3010000E3010000E3010000E301000010
:10006000E3010000E3010000E3010000E301000000
:10007000E3010000E3010000E3010000E3010000F0
:10008000E3010000E3010000E3010000E3010000E0
:10009000E3010000E3010000E3010000E3010000D0
:1000A000E3010000E3010000E3010000E3010000C0
:1000B000E3010000E3010000E3010000E3010000B0
:1000C000E3010000E3010000E3010000E3010000A0
:1000D000E3010000E3010000E3010000E301000090
:1000E000E30100000000000000000000000000002C
:1000F0000000000000000000000000000000000000
:1001000000000000000000000000000000000000EF
:1001100000000000000000000000000000000000DF
:1001200000000000000000000000000000000000CF
:1001300000000000000000000000000000000000BF
:100140000000000000F002F800F02EF80AA090E88D
:10015000000C82448344AAF10107DA4501D100F082
:1001600023F8AFF2090EBAE80F0013F0010F18BF21
:10017000FB1A43F001031847C8010000D801000032
:100180000023002400250026103A28BF78C1FBD8A0
:10019000520728BF30C148BF0B6070471FB500F041
:1001A000C9F81FBD10B510BD00F02FF81146FFF7BC
:1001B000F5FF00F0A3F800F04DF803B4FFF7F2FFED
:1001C00003BC00F055F80000094880470948004783
:1001D000FEE7FEE7FEE7FEE7FEE7FEE7FEE7FEE7F7
:1001E000FEE7FEE704480549034A054B7047000057
:1001F0008102000045010000600000206002002034
:1002000060000020704770477047754600F02CF87A
:10021000AE4605006946534620F00700854618B0F3
:1002200020B5FFF7DFFFBDE820404FF000064FF09C
:1002300000074FF000084FF0000B21F00701AC461B
:10024000ACE8C009ACE8C009ACE8C009ACE8C0093A
:100250008D46704710B50446AFF300802046BDE8D8
:100260001040FFF7AABF00000048704700000020C0
:1002700001491820ABBEFEE72600020070470000CF
:100280001548006840F47000134908604FF4B54009
:100290001249088080201249486146F65A101149D7
:1002A00008604FF48030091D0860081D006820F0C8
:1002B0000710C01C091D086000200A4908600A4890
:1002C000006920F03000084908610846406920F0C4
:1002D000300048617047000088ED00E00C480040A5
:1002E000003004E00004014000100140002000E064
:1002F000401C42F210718842FADB70470720064921
:10030000087008E0012000F009F8042000F006F869
:10031000022000F003F8F5E7054C004000B5024666
:1003200003480078504002490870FFF7DFFF00BD26
:10033000034C00404FF04070E1EE100A704700009F
:100340005003000000000020600200008001000057
:0400000500000145B1
:00000001FF
