:020000040000FA
:1000000068020020E5010000ED010000EF010000A2
:10001000F1010000F3010000F50100000000000004
:10002000000000000000000000000000F7010000D8
:10003000F901000000000000FB010000FD010000CC
:10004000FF010000FF010000FF010000FF010000B0
:10005000FF010000FF010000FF010000FF010000A0
:10006000FF010000FF010000FF010000FF01000090
:10007000FF010000FF010000FF010000FF01000080
:10008000FF010000FF010000FF010000FF01000070
:10009000FF010000FF010000FF010000FF01000060
:1000A000FF010000FF010000FF010000FF01000050
:1000B000FF010000FF010000FF010000FF01000040
:1000C000FF010000FF010000FF010000FF01000030
:1000D000FF010000FF010000FF010000FF01000020
:1000E000FF01000000000000000000000000000010
:1000F0000000000000000000000000000000000000
:1001000000000000000000000000000000000000EF
:1001100000000000000000000000000000000000DF
:1001200000000000000000000000000000000000CF
:1001300000000000000000000000000000000000BF
:100140000000000000F002F800F03CF80AA090E87F
:10015000000C82448344AAF10107DA4501D100F082
:1001600031F8AFF2090EBAE80F0013F0010F18BF13
:10017000FB1A43F001031847DC010000FC010000FA
:10018000103A24BF78C878C1FAD8520724BF30C8C3
:1001900030C144BF04680C60704700000023002495
:1001A00000250026103A28BF78C1FBD8520728BF87
:1001B00030C148BF0B6070471FB500F0C5F81FBDC8
:1001C00010B510BD00F02FF81146FFF7F5FF00F055
:1001D0009BF800F04DF803B4FFF7F2FF03BC00F00A
:1001E00055F800000948804709480047FEE7FEE748
:1001F000FEE7FEE7FEE7FEE7FEE7FEE7FEE7FEE7D7
:1002000004480549034A054B704700009D02000061
:1002100045010000680000206802002068000020FE
:10022000704770477047754600F02CF8AE460500E1
:100230006946534620F00700854618B020B5FFF701
:10024000DFFFBDE820404FF000064FF000074FF001
:1002500000084FF0000B21F00701AC46ACE8C009E4
:10026000ACE8C009ACE8C009ACE8C0098D467047ED
:1002700010B50446AFF300802046BDE81040FFF7FC
:10028000AABF000000487047040000200149182060
:10029000ABBEFEE72600020070470000154800686C
:1002A00040F47000134908604FF4B54012490880CB
:1002B00080201249486146F65A10114908604FF4EF
:1002C0008030091D0860081D006820F00710C01C60
:1002D000091D086000200A4908600A48006920F0EA
:1002E0003000084908610846406920F03000486144
:1002F0007047000088ED00E00C480040003004E04A
:10030000000401400010014020200C49087014E056
:100310000A48801E007880F020000849891E087075
:1003200007480849086004E006480068401E05497F
:100330000860044800680028F6DCE9E7254C004026
:10034000A0860100000000204FF04070E1EE100A8E
:10035000704700007403000000000020040000004B
:100360008001000078030000040000206402000007
:080370009C01000000000000E8
:0400000500000145B1
:00000001FF
